:100000000C942A001895000018950000189500001F
:10001000189500001895000018950000189500002C
:10002000189500001895000018950000189500001C
:10003000189500001895000018950000189500000C
:1000400018950000189500001895000018950000FC
:10005000189500008FE58DBFC8E3E0E24E2E84E0E6
:100060008EBFD4E0F4E05F2EA89584B7082E877F7A
:1000700084BF88E1992781BD91BDEEEFF3E0A0E652
:10008000B0E088278D933197E9F70E948A016624B2
:100090008FEF84BB83E886B980E087B9379A339ABB
:1000A0008CE00E94D80107B1007E006007B90E9471
:1000B0001904A0E6B0E08D939C9307B1007E026026
:1000C00007B90E941904A2E7B0E08D939C93E2E780
:1000D000F0E0D190E080FF2400270E943E040E94BF
:1000E00062042F933F934F935F93E0E6F0E0D1904B
:1000F000E080FF2400270E943E045F914F913F91D2
:100100002F910E94D404EDE0F0E0A2E6B0E00E945E
:100110003E05E8E8FAE00E943505E2E6F0E00E94DC
:100120002C040E947D04EDE0F0E0A4E7B0E00E9422
:100130003E0507B1007E016007B90E941904AAE6D6
:10014000B0E08D939C93AAE6B0E00D911C914DEC2C
:1001500050E00E944601ACE6B0E04D935C93E8E8C5
:10016000FAE00E943505ECE6F0E0D190E080FF2453
:1001700000270E943E040E947D04EDE0F0E0A6E628
:10018000B0E00E943E05E6E6F0E00E943104E4E7BC
:10019000F0E00E942C040E947D04EDE0F0E0AEE669
:1001A000B0E00E943E058FEB1AE00E947E01A8E0BD
:1001B000B4E0EEE6F0E0552742E00E9480020E94A3
:1001C0006001ECE8FAE00E9468018FEB11E00E9408
:1001D0007E01EEE8FAE00E9468018FEB14E00E94D5
:1001E0007E01A8E0B4E0E6E6F0E0552742E00E9498
:1001F00080020E946001E2E9FAE00E9468018FE754
:1002000011E00E947E01E4E9FAE00E9468018FE7B4
:1002100014E00E947E01A8E0B4E0E4E7F0E0552796
:1002200042E00E9480020E946001E8E9FAE00E9438
:100230006801E1E0F0E00E9481010E946F010C94EE
:100240005300F894FFCF00FC10D0089503D01ED0C7
:1002500001F8F9CF0024E89457FF02C009D0689450
:1002600000F80BD010F80124089502D009D00895A9
:10027000509540954F5F5F4F0895E89417FF08959C
:10028000009510950F5F1F4F68940895352F242F08
:10029000E894452B11F468940895512F402F0027BE
:1002A000112780E1440F551F001F111F021B130B64
:1002B000416018F4020F131F4E7F8A9599F7089535
:1002C000A8E0B4E08D91882311F06CD0FBCF0895A5
:1002D0000E943105802D11F065D0FACF089581E09C
:1002E00067D015D080E864C08FE7213039F08FEBFC
:1002F000223021F08FE8233009F08FEC810F0C942D
:10030000D80188EE93E081D03197D9F7089583E042
:1003100099277BC08AEF90E00E9405028D9A8C9A03
:100320008B9A8A9A899A889A909885E090E00E94A0
:100330000502919895989498939A929A919AEF932E
:10034000FF93E5E1F0E00E94F901FF91EF919198B0
:1003500059D0919AEF93FF93E5E1F0E00E94F90103
:10036000FF91EF9191984ED0919AEF93FF93E5E131
:10037000F0E00E94F901FF91EF91919843D092989B
:10038000919AEF93FF93E5E1F0E00E94F901FF916C
:10039000EF91919837D088E20BD08EE009D086E0BB
:1003A00007D00895909A829505D004D02BD0089557
:1003B0009098F9CF859510F4929A01C092988595FE
:1003C00010F4939A01C09398859510F4949A01C003
:1003D0009498859510F4959A01C09598919AEF9309
:1003E000FF93E5E1F0E00E94F901FF91EF91919810
:1003F00008953197F1F70895689462F80895E894A4
:1004000062F8089581E090E000C0EF93FF93EE273B
:10041000E82BE92B31F0EAEFF0E03197F1F70197A3
:10042000D1F7FF91EF9108958F939F93D216E30632
:10043000F4060FB680E890E8802795270FBE89075D
:100440000FB6892B87FD02C091E009260FBE9F9150
:100450008F91089543D0A9F0503899F01627050FD1
:100460001BF40AF077C27DC203951BD0FF202AF04F
:10047000BB0CDD1CEE1CFF1C02C003951BF003D05F
:10048000F5C16FC267C2B7FE089590E8B91611F4BE
:10049000D0FE08959FEFD91AE90AF90A09F40395E5
:1004A0000895FF92EF928D2DFF24EE24DD24BB24CE
:1004B00093E0849F1001829FB00CD11CE21CF31CBE
:1004C000839FD00CE11C2224F21C9A9531F0BD2CA4
:1004D000DE2CEF2CFF248F91ECCF0895652F90E850
:1004E000440F551F5927990F47956078102F90E8B2
:1004F000FF0C001F0927990FF79410780038089512
:10050000ABD1F4DF17FF03C08DE28D9311270038C4
:1005100021F4EAECF7E00C9413040F3741F4FF20C8
:1005200019F4E0ECF7E0F7CFECEBF7E0F4CF4A9307
:100530004A934A935A93BA93AA93BB270F5FE2F464
:10054000BB27802F0A9592D18D3E80F4EAE1F8E036
:10055000A3E00E94350568DFBB1FB0FF05C07097A0
:100560000E94350577DF3C96AA9599F7E6E1F8E019
:100570000E9435056FDF1FC0093038F1033158F193
:100580000A3130F418E08BE192E9EEECF7E02AC092
:100590000A956CD1EEE0F8E0BFEFA3E00E943505CC
:1005A00043DFBB1FB0FD05C038960E94350552DF02
:1005B0003C97AA9599F7B095BB0F98DF039513E088
:1005C0008AEF99E0F816090740F413E08BE094E015
:1005D000E2EEF7E007C016E001C0B39583E194E2D4
:1005E000E6EDF7E06A81BF3F19F4BB27112762608F
:1005F000BD836A831C83A881B98160E36D93A8835E
:10060000B9836D93081B0195AA24BB246A816A7F74
:10061000002339F0F694E794D794B794A7940A95F9
:10062000F7CF19E000270E943505CC248FEF74E046
:10063000AC14B206D306E406F50630F0AC18B20AE4
:10064000D30AE40AF50A21F1881F7A9531F056950C
:10065000479537952795C794EBCF809522D041F0E9
:10066000969508F7FE2CED2CDB2CBA2CAA24DBCFB8
:1006700025D05D813C812B8170D0277021F02BD05B
:100680006CD0E8F301C03CD04CD078D026960895C9
:100690008894881F7A95E9F7809503D049F38827D5
:1006A000FCCF806360FD06C0803311F0616002C042
:1006B000039561FD8D9360FD1A95089599278E919C
:1006C0009C9385338E9108F083958A3308F080E3FC
:1006D0008C93C0F70895732F720F61FF701B0AD0BF
:1006E0001296785019F050F38E9380E38E937150E8
:1006F000EAF70895A881B981A70F8827B81F089540
:1007000079E061FD700FF6DF48E0431B400F8AF38C
:1007100081F399274A9569F38E91803351F79C9321
:10072000F9CF732F61FF701B7395A881B981EA2FF0
:10073000FB2F11978191803361FF09F08D937A959A
:1007400011F48EE28D9381918823C1F7772311F400
:1007500080E38D9388278C930895889462FD089593
:10076000002359F4A881B9818C91803331F055234D
:1007700021F0539533506460089408955523E9F0AF
:1007800085E48D931AF48DE28D935195652F660F54
:10079000560F5A3010F060E503D068E001D0DACF90
:1007A0008FEF74E0561708F0561B881F7A9511F0EA
:1007B0006695F8CF809580638D9308954E414E00E5
:1007C000496E66696E6974790000302E3000004011
:1007D0004B4C0020A107000050C30000881300000C
:1007E000F401000000320000000500008000CCCCC5
:1007F000CC0C14AE47019CC42000DC460300E3533C
:10080000000063080000D7000000150000001CC2B3
:100810005367A5D468530024744915BE9A17CCBCFD
:100820008C2BBD3786350E9431050D920020D9F7FB
:100830000895369A3699FECF369A3699FECF84B10E
:1008400095B10895D094E094F09491E0D90E992751
:10085000E91EF91E10950895D190E190F190019153
:10086000089521913191419151910895FF0C90E8A3
:100870009027110F9795F794092F0895102FBD2CED
:10088000DE2CEF2CF02E11234AF4B094D094E09497
:10089000F0949FEFB91AD90AE90AF90A0EE1FF208C
:1008A00039F4FE2CED2CDB2CBB240850C2F759C0C8
:1008B00032F00A95BB0CDD1CEE1CFF1CF9CF0E9428
:1008C0004302D4CF502F2D2D3E2D4F2D612F089553
:1008D0002DEC3CEC4CEC5DE366270FC0BDDFF2DF96
:1008E000DD24EE2490E8F92E0FE307C0BADF05C03F
:1008F0002227332740E251E46627552351F1002394
:1009000081F1ECDD71F11627005850580894050B61
:1009100018F407FD03C025C007FD23C04695379591
:100920002795F694E794D79422D0FF202AF0DD0C87
:10093000EE1CFF1C015073F09D2D969548F0DD20B4
:100940003AF4EE202AF491E0D90E9927E91EF91E17
:100950008DCF07C09FE7092FF92A9FEFD92EE92EE7
:100960000895DD24EE24FF240027112708959F9287
:100970009924AA24BB2488E1D216E306F40628F0C1
:10098000D21AE30AF40A089401C08894991CAA1C9C
:10099000BB1CDD0CEE1CFF1C8A9571F7D92CEA2CD0
:1009A000FB2C9F9008955DDF99DD503829F090E889
:1009B00069270CC00AF045D059CF5FE322273327BF
:1009C000442701C04EDF8ADD5038B1F3003899F377
:1009D000902F951B8BF312F434D0FACF983118F086
:1009E000222733274427983028F0232F342F4427F9
:1009F0009850F9CF992329F04695379527959A95E0
:100A0000D9F7912F962742F014D0B0F6F794E794D7
:100A1000D7940F5F8BF69ECF10D051F008F412DF01
:100A2000FF2052F2DD0CEE1CFF1C0150CBF792CFE1
:100A300098CFD20EE31EF41E0895D21AE30AF40AE8
:100A40000895DF92EF92FF920F931F93D22EE32E21
:100A5000F42E052F162F6F915F914F913F912F919B
:100A60000895C895319600200895FBDF202DF9DF09
:100A7000302DF7DF402DF5DF502D089594E0819162
:100A80008D939A95E1F708950000C8425200493DC0
:0E0A900000004100563D2000566F6C7420009F
:00000001FF
